:020000040000fa
:10000000f07f0020b1020000af040000d90400001e
:1000100000000000000000000000000000000000e0
:10002000000000000000000000000000dd040000ef
:100030000000000000000000dd040000dd040000fe
:10004000dd040000dd040000dd040000dd0400002c
:10005000dd040000dd040000dd040000dd0400001c
:10006000dd040000dd040000dd040000dd0400000c
:10007000dd0400000000000000000000dd040000be
:1000800000000000dd040000dd040000dd040000cd
:1000900075030000dd040000dd040000dd04000045
:1000a000dd040000dd040000dd040000dd040000cc
:0c00b000dd040000dd040000dd040000a1
:020000040000fa
:1000bc00f8b5c046f8bc08bc9e4670474902000023
:1000cc00f8b5c046f8bc08bc9e467047210200003b
:020000040000fa
:1000dc001f4b5a6852031b68db0c13439b029b0a91
:1000ec001c4a936300235375110004228b691a4236
:1000fc00fcd118491022cb681a42fcd0154a137d4a
:10010c0080210b431375144b00229a611a61134b17
:10011c00134a1a62190004224b681a42fcd10f4a86
:10012c00f0234021d1501000b031402243581a42e4
:10013c00fcd00a4af8234021d1501000b83140229b
:10014c0043581a42fcd0074b90225201da61704797
:10015c00206080000010004000140040001c004093
:08016c0006010100000800403b
:020000040000fa
:1001740000230e4a10b513600d4a13600d4a136034
:100184000d4a13600d4a13600d4a53621361013323
:10019400936000f0a2f900f0a0f90a4c0a4b9c42cb
:1001a40000d310bd08cc9847f8e7c046780000207b
:1001b4000c000020080000200000002004000020a3
:0c01c40010000020c8000000cc0000006b
:020000040000fa
:1001d0005000002024000000000000007c000020ef
:1001e0000100000000000000740000200400000076
:1001f000000000000000002050000000000000008f
:100200007800002004000000000000000000000052
:100210000000000066666666666666666666666616
:020000040000fa
:1002200010b5064c2378002b07d1054b002b02d0cc
:10023000044800e000bf0123237010bd50000020df
:100240000000000000000000044b10b5002b03d09c
:100250000349044800e000bf10bdc0460000000094
:08026000540000200000000022
:020000040000fa
:100268000e4b01221a6019008b681a42fcd10b4b05
:10027800802252011a6000225a61586908490143d4
:1002880059610221d9635a649a64da641a65054a85
:100298001a641a009368002bfcd1704700240042ae
:0802a800000740405f0900005f
:020000040000fa
:1002b00010b50a4b98470a4b984700f075f8094b60
:1002c000ff229343084a9360084b9847084b98478e
:1002d000084b984700f032f8fee7c046db04000008
:1002e000db0400000000000000ed00e075010000ec
:0802f000db040000db04000048
:020000040000fa
:1002f8000d4b01221a6019000b691a42fcd10a4bf6
:10030800e222d2001a6003221a73084a9a8333221f
:100318009a72074a0021116001225a721a00136961
:10032800002bfcd17047c046003000421ab7ffffcf
:040338006c00002035
:020000040000fa
:10033c0070b5002000f04cf80021094800f0b8f826
:10034c0000f08ef8074a8225ed0580242403100066
:10035c0000211378002bfcd0ec610170f9e7c0464a
:08036c00c90400007c00002020
:020000040000fa
:1003740010b50a4b5b7a002b0ed0084b987ac0b2aa
:1003840033229a72064b1b68002b05d0002803d039
:10039400034b59681b68984710bdc04600300042a3
:0403a4006c000020c9
:020000040000fa
:1003a80010b50a480168002903d14368002b00d121
:1003b80010bd04008368064a9bb20c349b009b580e
:1003c80042682000984780002018ebe7d001000021
:0403d8008804000095
:020000040000fa
:1003dc0010b5094b06225a6000f022f8fff778fea0
:1003ec0000f060f800f03bf8fff738fffff77efff6
:0c03fc0000f004f810bdc04600400041b5
:020000040000fa
:10040800bff35f8f62b6064ac52189005358ff20a3
:1004180083433f380343535080235b031360704783
:0404280000e100e00f
:020000040000fa
:10042c008223db05802212031a60044a1a6100221f
:10043c0053215a541a395a547047c04600010512b8
:020000040000fa
:10044c00002310b5934206d103201840421e904160
:0e045c009b08c01810bdc45ccc540133f2e7fd
:020000040000fa
:02046a007047d9
:020000040000fa
:10046c00054a136802210b431360110002220b6929
:0c047c001a42fcd17047c046003000421c
:020000040000fa
:100488009d0400004d040000d5040000d5040000c0
:04049800d504000087
:020000040000fa
:10049c008a18914201d10020704700230b70013162
:0204ac00f7e770
:020000040000fa
:0204ae00fee767
:020000040000fa
:0c04b000014b84225a607047004000415c
:020000040000fa
:0c04bc00014b1860596070476c00002074
:020000040000fa
:0c04c800014b01221a7070477c000020dc
:020000040000fa
:0404d400002070474d
:020000040000fa
:0204d800fee73d
:020000040000fa
:0204da00704769
:020000040000fa
:0204dc00fee739
:020000040000fa
:0204de00704765
:020000040000fa
:0200000400807a
:04400000770800003d
:020000040000fa
:0200000400807a
:044004000000ffffba
:00000001FF
